:100000000C9434000C9446000C9446000C9446006A
:100010000C9446000C9455000C9446000C94460039
:100020000C9446000C9446000C9446000C94460038
:100030000C9446000C9446000C9446000C94460028
:100040000C9446000C9446000C9446000C94460018
:100050000C9446000C9446000C9446000C94460008
:100060000C9446000C94460011241FBECFEFD8E03C
:10007000DEBFCDBF21E0A0E0B1E001C01D92A13004
:10008000B207E1F70E9448000C948B000C9400002A
:100090008FEF84B91AB880EE80936D0084E080936E
:1000A0006800109200017894FFCF1F920F920FB654
:1000B0000F9211248F939F938FE39CE90197F1F79F
:1000C00000C0000089B1829586958770823079F0F2
:1000D000843081F0813099F4809100018F5F80310C
:1000E00018F4809300010BC01092000108C0109218
:1000F000000105C080910001815080930001809132
:10010000000185B984E08BBB9F918F910F900FBE4A
:0A0110000F901F901895F894FFCF90
:00000001FF
